{
  "contractName": "baseContract",
  "abi": [
    {
      "anonymous": false,
      "inputs": [
        {
          "indexed": false,
          "internalType": "uint256",
          "name": "itemId",
          "type": "uint256"
        },
        {
          "indexed": false,
          "internalType": "address",
          "name": "winner",
          "type": "address"
        },
        {
          "indexed": false,
          "internalType": "uint256",
          "name": "highestBid",
          "type": "uint256"
        }
      ],
      "name": "AuctionEnded",
      "type": "event"
    },
    {
      "anonymous": false,
      "inputs": [
        {
          "indexed": false,
          "internalType": "uint256",
          "name": "itemId",
          "type": "uint256"
        }
      ],
      "name": "AuctionStarted",
      "type": "event"
    },
    {
      "anonymous": false,
      "inputs": [
        {
          "indexed": false,
          "internalType": "uint256",
          "name": "itemId",
          "type": "uint256"
        },
        {
          "indexed": false,
          "internalType": "address",
          "name": "bidder",
          "type": "address"
        },
        {
          "indexed": false,
          "internalType": "uint256",
          "name": "amount",
          "type": "uint256"
        }
      ],
      "name": "BidPlaced",
      "type": "event"
    },
    {
      "anonymous": false,
      "inputs": [
        {
          "indexed": false,
          "internalType": "uint256",
          "name": "itemId",
          "type": "uint256"
        },
        {
          "indexed": false,
          "internalType": "address",
          "name": "buyer",
          "type": "address"
        },
        {
          "indexed": false,
          "internalType": "uint256",
          "name": "price",
          "type": "uint256"
        }
      ],
      "name": "ItemBought",
      "type": "event"
    },
    {
      "anonymous": false,
      "inputs": [
        {
          "indexed": false,
          "internalType": "uint256",
          "name": "itemId",
          "type": "uint256"
        },
        {
          "indexed": false,
          "internalType": "address",
          "name": "owner",
          "type": "address"
        },
        {
          "indexed": false,
          "internalType": "uint256",
          "name": "price",
          "type": "uint256"
        }
      ],
      "name": "ItemListed",
      "type": "event"
    },
    {
      "inputs": [
        {
          "internalType": "uint256",
          "name": "",
          "type": "uint256"
        }
      ],
      "name": "itemIds",
      "outputs": [
        {
          "internalType": "uint256",
          "name": "",
          "type": "uint256"
        }
      ],
      "stateMutability": "view",
      "type": "function",
      "constant": true
    },
    {
      "inputs": [
        {
          "internalType": "uint256",
          "name": "",
          "type": "uint256"
        }
      ],
      "name": "items",
      "outputs": [
        {
          "internalType": "uint256",
          "name": "itemId",
          "type": "uint256"
        },
        {
          "internalType": "address",
          "name": "owner",
          "type": "address"
        },
        {
          "internalType": "uint256",
          "name": "price",
          "type": "uint256"
        },
        {
          "internalType": "bool",
          "name": "buyAvailable",
          "type": "bool"
        },
        {
          "internalType": "bool",
          "name": "bidAvailable",
          "type": "bool"
        },
        {
          "internalType": "uint256",
          "name": "highestBid",
          "type": "uint256"
        },
        {
          "internalType": "address",
          "name": "highestBidder",
          "type": "address"
        }
      ],
      "stateMutability": "view",
      "type": "function",
      "constant": true
    },
    {
      "inputs": [
        {
          "internalType": "uint256",
          "name": "",
          "type": "uint256"
        }
      ],
      "name": "owners",
      "outputs": [
        {
          "internalType": "address",
          "name": "",
          "type": "address"
        }
      ],
      "stateMutability": "view",
      "type": "function",
      "constant": true
    },
    {
      "inputs": [
        {
          "internalType": "uint256",
          "name": "itemId",
          "type": "uint256"
        },
        {
          "internalType": "uint256",
          "name": "price",
          "type": "uint256"
        }
      ],
      "name": "setListing",
      "outputs": [],
      "stateMutability": "nonpayable",
      "type": "function"
    },
    {
      "inputs": [
        {
          "internalType": "uint256",
          "name": "itemId",
          "type": "uint256"
        }
      ],
      "name": "buyItem",
      "outputs": [],
      "stateMutability": "payable",
      "type": "function",
      "payable": true
    },
    {
      "inputs": [
        {
          "internalType": "uint256",
          "name": "itemId",
          "type": "uint256"
        }
      ],
      "name": "setBid",
      "outputs": [],
      "stateMutability": "payable",
      "type": "function",
      "payable": true
    },
    {
      "inputs": [
        {
          "internalType": "uint256",
          "name": "itemId",
          "type": "uint256"
        }
      ],
      "name": "startAuction",
      "outputs": [],
      "stateMutability": "nonpayable",
      "type": "function"
    },
    {
      "inputs": [
        {
          "internalType": "uint256",
          "name": "itemId",
          "type": "uint256"
        }
      ],
      "name": "endAuction",
      "outputs": [],
      "stateMutability": "nonpayable",
      "type": "function"
    },
    {
      "inputs": [],
      "name": "getOwners",
      "outputs": [
        {
          "internalType": "address[16]",
          "name": "",
          "type": "address[16]"
        }
      ],
      "stateMutability": "view",
      "type": "function",
      "constant": true
    },
    {
      "inputs": [
        {
          "internalType": "uint256",
          "name": "itemId",
          "type": "uint256"
        }
      ],
      "name": "getListing",
      "outputs": [
        {
          "internalType": "uint256",
          "name": "",
          "type": "uint256"
        },
        {
          "internalType": "address",
          "name": "",
          "type": "address"
        },
        {
          "internalType": "uint256",
          "name": "",
          "type": "uint256"
        },
        {
          "internalType": "bool",
          "name": "",
          "type": "bool"
        },
        {
          "internalType": "bool",
          "name": "",
          "type": "bool"
        },
        {
          "internalType": "uint256",
          "name": "",
          "type": "uint256"
        },
        {
          "internalType": "address",
          "name": "",
          "type": "address"
        }
      ],
      "stateMutability": "view",
      "type": "function",
      "constant": true
    },
    {
      "inputs": [
        {
          "internalType": "uint256",
          "name": "itemId",
          "type": "uint256"
        }
      ],
      "name": "getBidAvailability",
      "outputs": [
        {
          "internalType": "bool",
          "name": "",
          "type": "bool"
        }
      ],
      "stateMutability": "view",
      "type": "function",
      "constant": true
    },
    {
      "inputs": [
        {
          "internalType": "uint256",
          "name": "itemId",
          "type": "uint256"
        },
        {
          "internalType": "bool",
          "name": "status",
          "type": "bool"
        }
      ],
      "name": "setBidAvailability",
      "outputs": [],
      "stateMutability": "nonpayable",
      "type": "function"
    },
    {
      "inputs": [
        {
          "internalType": "uint256",
          "name": "itemId",
          "type": "uint256"
        },
        {
          "internalType": "bool",
          "name": "status",
          "type": "bool"
        }
      ],
      "name": "getBuyAvailability",
      "outputs": [],
      "stateMutability": "nonpayable",
      "type": "function"
    },
    {
      "inputs": [
        {
          "internalType": "uint256",
          "name": "itemId",
          "type": "uint256"
        }
      ],
      "name": "getBuyAvailability",
      "outputs": [
        {
          "internalType": "bool",
          "name": "",
          "type": "bool"
        }
      ],
      "stateMutability": "view",
      "type": "function",
      "constant": true
    },
    {
      "inputs": [
        {
          "internalType": "uint256",
          "name": "itemId",
          "type": "uint256"
        }
      ],
      "name": "getBuyer",
      "outputs": [
        {
          "internalType": "address",
          "name": "",
          "type": "address"
        }
      ],
      "stateMutability": "view",
      "type": "function",
      "constant": true
    },
    {
      "inputs": [
        {
          "internalType": "uint256",
          "name": "itemId",
          "type": "uint256"
        },
        {
          "internalType": "address",
          "name": "newBuyer",
          "type": "address"
        }
      ],
      "name": "setBuyer",
      "outputs": [],
      "stateMutability": "nonpayable",
      "type": "function"
    },
    {
      "inputs": [
        {
          "internalType": "uint256",
          "name": "itemId",
          "type": "uint256"
        }
      ],
      "name": "getBid",
      "outputs": [
        {
          "internalType": "uint256",
          "name": "",
          "type": "uint256"
        }
      ],
      "stateMutability": "view",
      "type": "function",
      "constant": true
    },
    {
      "inputs": [
        {
          "internalType": "uint256",
          "name": "itemId",
          "type": "uint256"
        }
      ],
      "name": "verifyListing",
      "outputs": [
        {
          "internalType": "bool",
          "name": "",
          "type": "bool"
        }
      ],
      "stateMutability": "view",
      "type": "function",
      "constant": true
    },
    {
      "inputs": [
        {
          "internalType": "uint256",
          "name": "itemId",
          "type": "uint256"
        },
        {
          "internalType": "address",
          "name": "buyer",
          "type": "address"
        }
      ],
      "name": "verifyBuyer",
      "outputs": [
        {
          "internalType": "bool",
          "name": "",
          "type": "bool"
        }
      ],
      "stateMutability": "view",
      "type": "function",
      "constant": true
    },
    {
      "inputs": [
        {
          "internalType": "uint256",
          "name": "itemId",
          "type": "uint256"
        },
        {
          "internalType": "address",
          "name": "seller",
          "type": "address"
        }
      ],
      "name": "verifySeller",
      "outputs": [
        {
          "internalType": "bool",
          "name": "",
          "type": "bool"
        }
      ],
      "stateMutability": "view",
      "type": "function",
      "constant": true
    }
  ],
  "bytecode": "0x608060405234801561001057600080fd5b5061260e806100206000396000f3fe60806040526004361061011f5760003560e01c806399f90a8e116100a0578063bfb231d211610064578063bfb231d214610447578063cef55b9a1461048a578063de667e70146104a6578063e2a3b66a146104cf578063e7fb74c71461050c5761011f565b806399f90a8e1461033c578063a0e67e2b14610379578063b3dc00fe146103a4578063b9a2de3a146103e1578063bee4fb201461040a5761011f565b80633c889e6f116100e75780633c889e6f1461023357806347ba05fe146102705780635bf608b8146102995780637b697030146102d65780638122c329146103135761011f565b8063025e7c2714610124578063065de74c14610161578063107a274a1461018a57806320fed772146101cd578063292c42c51461020a575b600080fd5b34801561013057600080fd5b5061014b60048036038101906101469190611ba2565b610528565b604051610158919061221a565b60405180910390f35b34801561016d57600080fd5b5061018860048036038101906101839190611ba2565b61055e565b005b34801561019657600080fd5b506101b160048036038101906101ac9190611ba2565b610701565b6040516101c4979695949392919061249e565b60405180910390f35b3480156101d957600080fd5b506101f460048036038101906101ef9190611ba2565b6108c5565b6040516102019190612251565b60405180910390f35b34801561021657600080fd5b50610231600480360381019061022c9190611c43565b610934565b005b34801561023f57600080fd5b5061025a60048036038101906102559190611ba2565b610bc2565b604051610267919061244c565b60405180910390f35b34801561027c57600080fd5b5061029760048036038101906102929190611c07565b610be2565b005b3480156102a557600080fd5b506102c060048036038101906102bb9190611ba2565b610cb8565b6040516102cd919061221a565b60405180910390f35b3480156102e257600080fd5b506102fd60048036038101906102f89190611ba2565b610cf8565b60405161030a9190612251565b60405180910390f35b34801561031f57600080fd5b5061033a60048036038101906103359190611c07565b610d25565b005b34801561034857600080fd5b50610363600480360381019061035e9190611bcb565b610dfb565b6040516103709190612251565b60405180910390f35b34801561038557600080fd5b5061038e610e6a565b60405161039b9190612235565b60405180910390f35b3480156103b057600080fd5b506103cb60048036038101906103c69190611ba2565b610eeb565b6040516103d8919061244c565b60405180910390f35b3480156103ed57600080fd5b5061040860048036038101906104039190611ba2565b610f0f565b005b34801561041657600080fd5b50610431600480360381019061042c9190611ba2565b6112d9565b60405161043e9190612251565b60405180910390f35b34801561045357600080fd5b5061046e60048036038101906104699190611ba2565b611306565b604051610481979695949392919061249e565b60405180910390f35b6104a4600480360381019061049f9190611ba2565b6113a2565b005b3480156104b257600080fd5b506104cd60048036038101906104c89190611bcb565b6116bb565b005b3480156104db57600080fd5b506104f660048036038101906104f19190611bcb565b6117b8565b6040516105039190612251565b60405180910390f35b61052660048036038101906105219190611ba2565b611827565b005b6000816010811061053857600080fd5b016000915054906101000a900473ffffffffffffffffffffffffffffffffffffffff1681565b3373ffffffffffffffffffffffffffffffffffffffff166011600083815260200190815260200160002060010160009054906101000a900473ffffffffffffffffffffffffffffffffffffffff1673ffffffffffffffffffffffffffffffffffffffff1614610602576040517f08c379a00000000000000000000000000000000000000000000000000000000081526004016105f9906122ac565b60405180910390fd5b600015156011600083815260200190815260200160002060030160019054906101000a900460ff1615151480156106605750600115156011600083815260200190815260200160002060030160009054906101000a900460ff161515145b61066957600080fd5b60016011600083815260200190815260200160002060030160016101000a81548160ff02191690831515021790555060006011600083815260200190815260200160002060030160006101000a81548160ff0219169083151502179055507f1bb96dff6ab5005aff98cdc0cf176bb7d8e0423cb48e02217d35b042cec81e9f816040516106f6919061244c565b60405180910390a150565b60008060008060008060008073ffffffffffffffffffffffffffffffffffffffff16601160008a815260200190815260200160002060010160009054906101000a900473ffffffffffffffffffffffffffffffffffffffff1673ffffffffffffffffffffffffffffffffffffffff1614156107b1576040517f08c379a00000000000000000000000000000000000000000000000000000000081526004016107a89061240c565b60405180910390fd5b6011600089815260200190815260200160002060000154601160008a815260200190815260200160002060010160009054906101000a900473ffffffffffffffffffffffffffffffffffffffff16601160008b815260200190815260200160002060020154601160008c815260200190815260200160002060030160009054906101000a900460ff16601160008d815260200190815260200160002060030160019054906101000a900460ff16601160008e815260200190815260200160002060040154601160008f815260200190815260200160002060050160009054906101000a900473ffffffffffffffffffffffffffffffffffffffff169650965096509650965096509650919395979092949650565b60008073ffffffffffffffffffffffffffffffffffffffff166011600084815260200190815260200160002060010160009054906101000a900473ffffffffffffffffffffffffffffffffffffffff1673ffffffffffffffffffffffffffffffffffffffff1614159050919050565b60008111610977576040517f08c379a000000000000000000000000000000000000000000000000000000000815260040161096e906122cc565b60405180910390fd5b6040518060e001604052808381526020013373ffffffffffffffffffffffffffffffffffffffff16815260200182815260200160011515815260200160001515815260200160008152602001600073ffffffffffffffffffffffffffffffffffffffff16815250601160008481526020019081526020016000206000820151816000015560208201518160010160006101000a81548173ffffffffffffffffffffffffffffffffffffffff021916908373ffffffffffffffffffffffffffffffffffffffff1602179055506040820151816002015560608201518160030160006101000a81548160ff02191690831515021790555060808201518160030160016101000a81548160ff02191690831515021790555060a0820151816004015560c08201518160050160006101000a81548173ffffffffffffffffffffffffffffffffffffffff021916908373ffffffffffffffffffffffffffffffffffffffff16021790555090505060108290806001815401808255809150506001900390600052602060002001600090919091909150553360008360108110610b44577f4e487b7100000000000000000000000000000000000000000000000000000000600052603260045260246000fd5b0160006101000a81548173ffffffffffffffffffffffffffffffffffffffff021916908373ffffffffffffffffffffffffffffffffffffffff1602179055507fc93edc6ee14cd6c0c2842099adfa8953b237dbdad304ba28e96dce8a7f2a828c823383604051610bb693929190612467565b60405180910390a15050565b600060116000838152602001908152602001600020600401549050919050565b3373ffffffffffffffffffffffffffffffffffffffff166011600084815260200190815260200160002060010160009054906101000a900473ffffffffffffffffffffffffffffffffffffffff1673ffffffffffffffffffffffffffffffffffffffff1614610c86576040517f08c379a0000000000000000000000000000000000000000000000000000000008152600401610c7d9061232c565b60405180910390fd5b806011600084815260200190815260200160002060030160006101000a81548160ff0219169083151502179055505050565b60006011600083815260200190815260200160002060050160009054906101000a900473ffffffffffffffffffffffffffffffffffffffff169050919050565b60006011600083815260200190815260200160002060030160009054906101000a900460ff169050919050565b3373ffffffffffffffffffffffffffffffffffffffff166011600084815260200190815260200160002060010160009054906101000a900473ffffffffffffffffffffffffffffffffffffffff1673ffffffffffffffffffffffffffffffffffffffff1614610dc9576040517f08c379a0000000000000000000000000000000000000000000000000000000008152600401610dc09061226c565b60405180910390fd5b806011600084815260200190815260200160002060030160016101000a81548160ff0219169083151502179055505050565b60008173ffffffffffffffffffffffffffffffffffffffff166011600085815260200190815260200160002060050160009054906101000a900473ffffffffffffffffffffffffffffffffffffffff1673ffffffffffffffffffffffffffffffffffffffff1614905092915050565b610e72611b40565b6000601080602002604051908101604052809291908260108015610ee1576020028201915b8160009054906101000a900473ffffffffffffffffffffffffffffffffffffffff1673ffffffffffffffffffffffffffffffffffffffff1681526020019060010190808311610e97575b5050505050905090565b60108181548110610efb57600080fd5b906000526020600020016000915090505481565b3373ffffffffffffffffffffffffffffffffffffffff166011600083815260200190815260200160002060010160009054906101000a900473ffffffffffffffffffffffffffffffffffffffff1673ffffffffffffffffffffffffffffffffffffffff1614610fb3576040517f08c379a0000000000000000000000000000000000000000000000000000000008152600401610faa9061228c565b60405180910390fd5b600073ffffffffffffffffffffffffffffffffffffffff166011600083815260200190815260200160002060050160009054906101000a900473ffffffffffffffffffffffffffffffffffffffff1673ffffffffffffffffffffffffffffffffffffffff161415611059576040517f08c379a00000000000000000000000000000000000000000000000000000000081526004016110509061234c565b60405180910390fd5b6011600082815260200190815260200160002060050160009054906101000a900473ffffffffffffffffffffffffffffffffffffffff166011600083815260200190815260200160002060010160006101000a81548173ffffffffffffffffffffffffffffffffffffffff021916908373ffffffffffffffffffffffffffffffffffffffff16021790555060006011600083815260200190815260200160002060030160016101000a81548160ff02191690831515021790555060006011600083815260200190815260200160002060030160006101000a81548160ff0219169083151502179055506011600082815260200190815260200160002060050160009054906101000a900473ffffffffffffffffffffffffffffffffffffffff16600082601081106111b3577f4e487b7100000000000000000000000000000000000000000000000000000000600052603260045260246000fd5b0160006101000a81548173ffffffffffffffffffffffffffffffffffffffff021916908373ffffffffffffffffffffffffffffffffffffffff1602179055503373ffffffffffffffffffffffffffffffffffffffff166108fc60116000848152602001908152602001600020600401549081150290604051600060405180830381858888f1935050505015801561124e573d6000803e3d6000fd5b507fd2aa34a4fdbbc6dff6a3e56f46e0f3ae2a31d7785ff3487aa5c95c642acea501816011600084815260200190815260200160002060050160009054906101000a900473ffffffffffffffffffffffffffffffffffffffff1660116000858152602001908152602001600020600401546040516112ce93929190612467565b60405180910390a150565b60006011600083815260200190815260200160002060030160019054906101000a900460ff169050919050565b60116020528060005260406000206000915090508060000154908060010160009054906101000a900473ffffffffffffffffffffffffffffffffffffffff16908060020154908060030160009054906101000a900460ff16908060030160019054906101000a900460ff16908060040154908060050160009054906101000a900473ffffffffffffffffffffffffffffffffffffffff16905087565b6011600082815260200190815260200160002060030160019054906101000a900460ff16611405576040517f08c379a00000000000000000000000000000000000000000000000000000000081526004016113fc906122ec565b60405180910390fd5b6011600082815260200190815260200160002060040154341161145d576040517f08c379a00000000000000000000000000000000000000000000000000000000081526004016114549061238c565b60405180910390fd5b60116000828152602001908152602001600020600201543410156114b6576040517f08c379a00000000000000000000000000000000000000000000000000000000081526004016114ad906123cc565b60405180910390fd5b6011600082815260200190815260200160002060010160009054906101000a900473ffffffffffffffffffffffffffffffffffffffff1673ffffffffffffffffffffffffffffffffffffffff163373ffffffffffffffffffffffffffffffffffffffff16141561155b576040517f08c379a00000000000000000000000000000000000000000000000000000000081526004016115529061242c565b60405180910390fd5b600060116000838152602001908152602001600020600401541461160d576011600082815260200190815260200160002060050160009054906101000a900473ffffffffffffffffffffffffffffffffffffffff1673ffffffffffffffffffffffffffffffffffffffff166108fc60116000848152602001908152602001600020600401549081150290604051600060405180830381858888f1935050505015801561160b573d6000803e3d6000fd5b505b346011600083815260200190815260200160002060040181905550336011600083815260200190815260200160002060050160006101000a81548173ffffffffffffffffffffffffffffffffffffffff021916908373ffffffffffffffffffffffffffffffffffffffff1602179055507f0e54eff26401bf69b81b26f60bd85ef47f5d85275c1d268d84f68d6897431c478133346040516116b093929190612467565b60405180910390a150565b3373ffffffffffffffffffffffffffffffffffffffff166011600084815260200190815260200160002060010160009054906101000a900473ffffffffffffffffffffffffffffffffffffffff1673ffffffffffffffffffffffffffffffffffffffff161461175f576040517f08c379a0000000000000000000000000000000000000000000000000000000008152600401611756906123ac565b60405180910390fd5b806011600084815260200190815260200160002060050160006101000a81548173ffffffffffffffffffffffffffffffffffffffff021916908373ffffffffffffffffffffffffffffffffffffffff1602179055505050565b60008173ffffffffffffffffffffffffffffffffffffffff166011600085815260200190815260200160002060010160009054906101000a900473ffffffffffffffffffffffffffffffffffffffff1673ffffffffffffffffffffffffffffffffffffffff1614905092915050565b6011600082815260200190815260200160002060030160009054906101000a900460ff1661188a576040517f08c379a0000000000000000000000000000000000000000000000000000000008152600401611881906123ec565b60405180910390fd5b601160008281526020019081526020016000206002015434146118e2576040517f08c379a00000000000000000000000000000000000000000000000000000000081526004016118d99061230c565b60405180910390fd5b6011600082815260200190815260200160002060010160009054906101000a900473ffffffffffffffffffffffffffffffffffffffff1673ffffffffffffffffffffffffffffffffffffffff163373ffffffffffffffffffffffffffffffffffffffff161415611987576040517f08c379a000000000000000000000000000000000000000000000000000000000815260040161197e9061236c565b60405180910390fd5b6011600082815260200190815260200160002060010160009054906101000a900473ffffffffffffffffffffffffffffffffffffffff1673ffffffffffffffffffffffffffffffffffffffff166108fc349081150290604051600060405180830381858888f19350505050158015611a03573d6000803e3d6000fd5b50336011600083815260200190815260200160002060010160006101000a81548173ffffffffffffffffffffffffffffffffffffffff021916908373ffffffffffffffffffffffffffffffffffffffff16021790555060006011600083815260200190815260200160002060030160006101000a81548160ff0219169083151502179055503360008260108110611ac3577f4e487b7100000000000000000000000000000000000000000000000000000000600052603260045260246000fd5b0160006101000a81548173ffffffffffffffffffffffffffffffffffffffff021916908373ffffffffffffffffffffffffffffffffffffffff1602179055507fd73457218f6ab2c74e548247b8ccd99af11d7975e2beef89a0cd9743fb558da4813334604051611b3593929190612467565b60405180910390a150565b604051806102000160405280601090602082028036833780820191505090505090565b600081359050611b7281612593565b92915050565b600081359050611b87816125aa565b92915050565b600081359050611b9c816125c1565b92915050565b600060208284031215611bb457600080fd5b6000611bc284828501611b8d565b91505092915050565b60008060408385031215611bde57600080fd5b6000611bec85828601611b8d565b9250506020611bfd85828601611b63565b9150509250929050565b60008060408385031215611c1a57600080fd5b6000611c2885828601611b8d565b9250506020611c3985828601611b78565b9150509250929050565b60008060408385031215611c5657600080fd5b6000611c6485828601611b8d565b9250506020611c7585828601611b8d565b9150509250929050565b6000611c8b8383611c97565b60208301905092915050565b611ca08161254b565b82525050565b611caf8161254b565b82525050565b611cbe81612517565b611cc8818461252f565b9250611cd38261250d565b8060005b83811015611d04578151611ceb8782611c7f565b9650611cf683612522565b925050600181019050611cd7565b505050505050565b611d158161255d565b82525050565b6000611d28602a8361253a565b91507f4f6e6c7920746865206f776e65722063616e206368616e67652062696420617660008301527f61696c6162696c697479000000000000000000000000000000000000000000006020830152604082019050919050565b6000611d8e60228361253a565b91507f4f6e6c7920746865206f776e65722063616e20656e642074686520617563746960008301527f6f6e0000000000000000000000000000000000000000000000000000000000006020830152604082019050919050565b6000611df460248361253a565b91507f4f6e6c7920746865206f776e65722063616e207374617274207468652061756360008301527f74696f6e000000000000000000000000000000000000000000000000000000006020830152604082019050919050565b6000611e5a601f8361253a565b91507f5072696365206d7573742062652067726561746572207468616e207a65726f006000830152602082019050919050565b6000611e9a601e8361253a565b91507f4974656d206e6f7420617661696c61626c6520666f722062696464696e6700006000830152602082019050919050565b6000611eda60128361253a565b91507f496e73756666696369656e742066756e647300000000000000000000000000006000830152602082019050919050565b6000611f1a602a8361253a565b91507f4f6e6c7920746865206f776e65722063616e206368616e67652062757920617660008301527f61696c6162696c697479000000000000000000000000000000000000000000006020830152604082019050919050565b6000611f8060108361253a565b91507f4e6f2062696473207265636569766564000000000000000000000000000000006000830152602082019050919050565b6000611fc0602d8361253a565b91507f42757965722063616e6e6f74206265207468652063757272656e74206f776e6560008301527f72206f6620746865206974656d000000000000000000000000000000000000006020830152604082019050919050565b6000612026602f8361253a565b91507f426964206d75737420626520686967686572207468616e20746865206375727260008301527f656e7420686967686573742062696400000000000000000000000000000000006020830152604082019050919050565b600061208c601e8361253a565b91507f4f6e6c7920746865206f776e65722063616e20736574206120627579657200006000830152602082019050919050565b60006120cc603a8361253a565b91507f426964206d7573742062652067726561746572207468616e206f72206571756160008301527f6c20746f206c6973746564207072696365206279206f776e65720000000000006020830152604082019050919050565b6000612132601b8361253a565b91507f4974656d206e6f7420617661696c61626c6520666f722073616c6500000000006000830152602082019050919050565b600061217260138361253a565b91507f4974656d20646f6573206e6f74206578697374000000000000000000000000006000830152602082019050919050565b60006121b2602d8361253a565b91507f4269642063616e6e6f7420626520706c6163656420627920746865206f776e6560008301527f72206f6620746865206974656d000000000000000000000000000000000000006020830152604082019050919050565b61221481612589565b82525050565b600060208201905061222f6000830184611ca6565b92915050565b60006102008201905061224b6000830184611cb5565b92915050565b60006020820190506122666000830184611d0c565b92915050565b6000602082019050818103600083015261228581611d1b565b9050919050565b600060208201905081810360008301526122a581611d81565b9050919050565b600060208201905081810360008301526122c581611de7565b9050919050565b600060208201905081810360008301526122e581611e4d565b9050919050565b6000602082019050818103600083015261230581611e8d565b9050919050565b6000602082019050818103600083015261232581611ecd565b9050919050565b6000602082019050818103600083015261234581611f0d565b9050919050565b6000602082019050818103600083015261236581611f73565b9050919050565b6000602082019050818103600083015261238581611fb3565b9050919050565b600060208201905081810360008301526123a581612019565b9050919050565b600060208201905081810360008301526123c58161207f565b9050919050565b600060208201905081810360008301526123e5816120bf565b9050919050565b6000602082019050818103600083015261240581612125565b9050919050565b6000602082019050818103600083015261242581612165565b9050919050565b60006020820190508181036000830152612445816121a5565b9050919050565b6000602082019050612461600083018461220b565b92915050565b600060608201905061247c600083018661220b565b6124896020830185611ca6565b612496604083018461220b565b949350505050565b600060e0820190506124b3600083018a61220b565b6124c06020830189611ca6565b6124cd604083018861220b565b6124da6060830187611d0c565b6124e76080830186611d0c565b6124f460a083018561220b565b61250160c0830184611ca6565b98975050505050505050565b6000819050919050565b600060109050919050565b6000602082019050919050565b600081905092915050565b600082825260208201905092915050565b600061255682612569565b9050919050565b60008115159050919050565b600073ffffffffffffffffffffffffffffffffffffffff82169050919050565b6000819050919050565b61259c8161254b565b81146125a757600080fd5b50565b6125b38161255d565b81146125be57600080fd5b50565b6125ca81612589565b81146125d557600080fd5b5056fea264697066735822122013dcf5fb7de820118a3fa7ca5a9a3a2346c309a0e6b24f44e43eb2b10ff9216164736f6c63430008000033",
  "immutableReferences": {},
  "source": "// SPDX-License-Identifier: MIT\r\npragma solidity ^0.8.0;\r\n\r\ncontract baseContract {\r\n    struct Item {\r\n        uint itemId;\r\n        address owner;\r\n        uint price;\r\n        bool buyAvailable;\r\n        bool bidAvailable;\r\n        uint highestBid;\r\n        address highestBidder;\r\n    }\r\n\r\n    address[16] public owners;\r\n    uint[] public itemIds;\r\n    mapping(uint => Item) public items;\r\n\r\n    event ItemListed(uint itemId, address owner, uint price);\r\n    event ItemBought(uint itemId, address buyer, uint price);\r\n    event BidPlaced(uint itemId, address bidder, uint amount);\r\n    event AuctionStarted(uint itemId);\r\n    event AuctionEnded(uint itemId, address winner, uint highestBid);\r\n\r\n    function setListing(uint itemId, uint price) public {\r\n        require(price > 0, \"Price must be greater than zero\");\r\n        items[itemId] = Item({\r\n            itemId: itemId,\r\n            owner: msg.sender,\r\n            price: price,\r\n            buyAvailable: true,\r\n            bidAvailable: false,\r\n            highestBid: 0,\r\n            highestBidder: address(0)\r\n        });\r\n        itemIds.push(itemId);\r\n        owners[itemId] = msg.sender;\r\n        emit ItemListed(itemId, msg.sender, price);\r\n    }\r\n\r\n    function buyItem(uint itemId) public payable {\r\n        require(items[itemId].buyAvailable, \"Item not available for sale\");\r\n        require(msg.value == items[itemId].price, \"Insufficient funds\");\r\n        require(msg.sender != items[itemId].owner, \"Buyer cannot be the current owner of the item\");\r\n\r\n        // Transfer ownership of the item and update state\r\n        payable(items[itemId].owner).transfer(msg.value);\r\n        items[itemId].owner = msg.sender;\r\n        items[itemId].buyAvailable = false;\r\n        owners[itemId] = msg.sender;\r\n\r\n        emit ItemBought(itemId, msg.sender, msg.value);\r\n    }\r\n\r\n    function setBid(uint itemId) public payable {\r\n        require(items[itemId].bidAvailable, \"Item not available for bidding\");\r\n        require(msg.value > items[itemId].highestBid, \"Bid must be higher than the current highest bid\");\r\n        require(msg.value >= items[itemId].price, \"Bid must be greater than or equal to listed price by owner\");\r\n        require(msg.sender != items[itemId].owner, \"Bid cannot be placed by the owner of the item\");\r\n\r\n        // Refund the previous highest bidder\r\n        if (items[itemId].highestBid != 0) {\r\n            payable(items[itemId].highestBidder).transfer(items[itemId].highestBid);\r\n        }\r\n\r\n        items[itemId].highestBid = msg.value;\r\n        items[itemId].highestBidder = msg.sender;\r\n\r\n        emit BidPlaced(itemId, msg.sender, msg.value);\r\n    }\r\n\r\n    function startAuction(uint itemId) public {\r\n        require(items[itemId].owner == msg.sender, \"Only the owner can start the auction\");\r\n        require(items[itemId].bidAvailable == false && items[itemId].buyAvailable == true);\r\n        items[itemId].bidAvailable = true;\r\n        items[itemId].buyAvailable = false;\r\n        emit AuctionStarted(itemId);\r\n    }\r\n\r\n    function endAuction(uint itemId) public {\r\n        require(items[itemId].owner == msg.sender, \"Only the owner can end the auction\");\r\n        require(items[itemId].highestBidder != address(0), \"No bids received\");\r\n\r\n        // Transfer ownership to highest bidder\r\n        items[itemId].owner = items[itemId].highestBidder;\r\n        items[itemId].bidAvailable = false;\r\n        items[itemId].buyAvailable = false;\r\n        owners[itemId] = items[itemId].highestBidder;\r\n\r\n        // Pay the seller\r\n        payable(msg.sender).transfer(items[itemId].highestBid);\r\n\r\n        emit AuctionEnded(itemId, items[itemId].highestBidder, items[itemId].highestBid);\r\n    }\r\n\r\n    function getOwners() public view returns (address[16] memory) {\r\n        return owners;\r\n    }\r\n\r\n    function getListing(uint itemId) public view returns (uint, address, uint, bool, bool, uint, address) {\r\n        require(items[itemId].owner != address(0), \"Item does not exist\");\r\n        return (\r\n            items[itemId].itemId,\r\n            items[itemId].owner,\r\n            items[itemId].price,\r\n            items[itemId].buyAvailable,\r\n            items[itemId].bidAvailable,\r\n            items[itemId].highestBid,\r\n            items[itemId].highestBidder\r\n        );\r\n    }\r\n\r\n    function getBidAvailability(uint itemId) public view returns (bool) {\r\n        return items[itemId].bidAvailable;\r\n    }\r\n\r\n    function getBuyAvailability(uint itemId) public view returns (bool) {\r\n        return items[itemId].buyAvailable;\r\n    }\r\n\r\n    function setBidAvailability(uint itemId, bool status) public {\r\n        require(items[itemId].owner == msg.sender, \"Only the owner can change bid availability\");\r\n        items[itemId].bidAvailable = status;\r\n    }\r\n\r\n    function getBuyAvailability(uint itemId, bool status) public {\r\n        require(items[itemId].owner == msg.sender, \"Only the owner can change buy availability\");\r\n        items[itemId].buyAvailable = status;\r\n    }\r\n\r\n    function getBuyer(uint itemId) public view returns (address) {\r\n        return items[itemId].highestBidder;\r\n    }\r\n\r\n    function setBuyer(uint itemId, address newBuyer) public {\r\n        require(items[itemId].owner == msg.sender, \"Only the owner can set a buyer\");\r\n        items[itemId].highestBidder = newBuyer;\r\n    }\r\n\r\n    function getBid(uint itemId) public view returns (uint) {\r\n        return items[itemId].highestBid;\r\n    }\r\n\r\n    function verifyListing(uint itemId) public view returns (bool) {\r\n        return items[itemId].owner != address(0);\r\n    }\r\n\r\n    function verifyBuyer(uint itemId, address buyer) public view returns (bool) {\r\n        return items[itemId].highestBidder == buyer;\r\n    }\r\n\r\n    function verifySeller(uint itemId, address seller) public view returns (bool) {\r\n        return items[itemId].owner == seller;\r\n    }\r\n}\r\n",
  "sourcePath": "C:\\Users\\usera\\OneDrive\\Desktop\\smartcontract196\\contracts\\baseContract.sol",
  "compiler": {
    "name": "solc",
    "version": "0.8.0+commit.c7dfd78e.Emscripten.clang"
  },
  "schemaVersion": "3.4.16",
  "updatedAt": "2024-12-01T06:02:31.652Z",
  "networkType": "ethereum",
  "devdoc": {
    "kind": "dev",
    "methods": {},
    "version": 1
  },
  "userdoc": {
    "kind": "user",
    "methods": {},
    "version": 1
  }
}